{
  "contractName": "FlightSuretyData",
  "abi": [
    {
      "constant": true,
      "inputs": [],
      "name": "operational",
      "outputs": [
        {
          "name": "",
          "type": "bool"
        }
      ],
      "payable": false,
      "stateMutability": "view",
      "type": "function"
    },
    {
      "constant": true,
      "inputs": [
        {
          "name": "",
          "type": "bytes32"
        }
      ],
      "name": "flights",
      "outputs": [
        {
          "name": "isRegistered",
          "type": "bool"
        },
        {
          "name": "statusCode",
          "type": "uint8"
        },
        {
          "name": "takeOff",
          "type": "uint256"
        },
        {
          "name": "landing",
          "type": "uint256"
        },
        {
          "name": "airline",
          "type": "address"
        },
        {
          "name": "flightRef",
          "type": "string"
        },
        {
          "name": "price",
          "type": "uint256"
        },
        {
          "name": "from",
          "type": "string"
        },
        {
          "name": "to",
          "type": "string"
        }
      ],
      "payable": false,
      "stateMutability": "view",
      "type": "function"
    },
    {
      "constant": true,
      "inputs": [
        {
          "name": "",
          "type": "uint256"
        }
      ],
      "name": "flightKeys",
      "outputs": [
        {
          "name": "",
          "type": "bytes32"
        }
      ],
      "payable": false,
      "stateMutability": "view",
      "type": "function"
    },
    {
      "constant": true,
      "inputs": [
        {
          "name": "",
          "type": "address"
        }
      ],
      "name": "airlines",
      "outputs": [
        {
          "name": "registered",
          "type": "bool"
        },
        {
          "name": "funded",
          "type": "bool"
        }
      ],
      "payable": false,
      "stateMutability": "view",
      "type": "function"
    },
    {
      "constant": true,
      "inputs": [],
      "name": "firstAirline",
      "outputs": [
        {
          "name": "",
          "type": "address"
        }
      ],
      "payable": false,
      "stateMutability": "view",
      "type": "function"
    },
    {
      "constant": true,
      "inputs": [
        {
          "name": "",
          "type": "address"
        }
      ],
      "name": "authorizedCallers",
      "outputs": [
        {
          "name": "",
          "type": "bool"
        }
      ],
      "payable": false,
      "stateMutability": "view",
      "type": "function"
    },
    {
      "constant": true,
      "inputs": [
        {
          "name": "",
          "type": "address"
        }
      ],
      "name": "withdrawals",
      "outputs": [
        {
          "name": "",
          "type": "uint256"
        }
      ],
      "payable": false,
      "stateMutability": "view",
      "type": "function"
    },
    {
      "constant": true,
      "inputs": [],
      "name": "indexFlightKeys",
      "outputs": [
        {
          "name": "",
          "type": "uint256"
        }
      ],
      "payable": false,
      "stateMutability": "view",
      "type": "function"
    },
    {
      "constant": true,
      "inputs": [],
      "name": "registeredAirlinesCount",
      "outputs": [
        {
          "name": "",
          "type": "uint256"
        }
      ],
      "payable": false,
      "stateMutability": "view",
      "type": "function"
    },
    {
      "inputs": [
        {
          "name": "_firstAirline",
          "type": "address"
        }
      ],
      "payable": false,
      "stateMutability": "nonpayable",
      "type": "constructor"
    },
    {
      "payable": true,
      "stateMutability": "payable",
      "type": "fallback"
    },
    {
      "anonymous": false,
      "inputs": [
        {
          "indexed": false,
          "name": "recipient",
          "type": "address"
        },
        {
          "indexed": false,
          "name": "amount",
          "type": "uint256"
        }
      ],
      "name": "Paid",
      "type": "event"
    },
    {
      "anonymous": false,
      "inputs": [
        {
          "indexed": false,
          "name": "airline",
          "type": "address"
        }
      ],
      "name": "Funded",
      "type": "event"
    },
    {
      "anonymous": false,
      "inputs": [
        {
          "indexed": false,
          "name": "origin",
          "type": "address"
        },
        {
          "indexed": false,
          "name": "newAirline",
          "type": "address"
        }
      ],
      "name": "AirlineRegistered",
      "type": "event"
    },
    {
      "anonymous": false,
      "inputs": [
        {
          "indexed": false,
          "name": "passenger",
          "type": "address"
        },
        {
          "indexed": false,
          "name": "amount",
          "type": "uint256"
        }
      ],
      "name": "Credited",
      "type": "event"
    },
    {
      "constant": false,
      "inputs": [
        {
          "name": "mode",
          "type": "bool"
        }
      ],
      "name": "setOperatingStatus",
      "outputs": [],
      "payable": false,
      "stateMutability": "nonpayable",
      "type": "function"
    },
    {
      "constant": false,
      "inputs": [
        {
          "name": "callerAddress",
          "type": "address"
        }
      ],
      "name": "authorizeCaller",
      "outputs": [],
      "payable": false,
      "stateMutability": "nonpayable",
      "type": "function"
    },
    {
      "constant": true,
      "inputs": [
        {
          "name": "airlineAddress",
          "type": "address"
        }
      ],
      "name": "hasFunded",
      "outputs": [
        {
          "name": "_hasFunded",
          "type": "bool"
        }
      ],
      "payable": false,
      "stateMutability": "view",
      "type": "function"
    },
    {
      "constant": true,
      "inputs": [
        {
          "name": "airlineAddress",
          "type": "address"
        }
      ],
      "name": "isRegistered",
      "outputs": [
        {
          "name": "_registered",
          "type": "bool"
        }
      ],
      "payable": false,
      "stateMutability": "view",
      "type": "function"
    },
    {
      "constant": true,
      "inputs": [
        {
          "name": "flightRef",
          "type": "string"
        },
        {
          "name": "destination",
          "type": "string"
        },
        {
          "name": "timestamp",
          "type": "uint256"
        }
      ],
      "name": "getFlightKey",
      "outputs": [
        {
          "name": "",
          "type": "bytes32"
        }
      ],
      "payable": false,
      "stateMutability": "pure",
      "type": "function"
    },
    {
      "constant": true,
      "inputs": [
        {
          "name": "flightRef",
          "type": "string"
        },
        {
          "name": "destination",
          "type": "string"
        },
        {
          "name": "timestamp",
          "type": "uint256"
        },
        {
          "name": "passenger",
          "type": "address"
        }
      ],
      "name": "paxOnFlight",
      "outputs": [
        {
          "name": "onFlight",
          "type": "bool"
        }
      ],
      "payable": false,
      "stateMutability": "view",
      "type": "function"
    },
    {
      "constant": true,
      "inputs": [
        {
          "name": "flightRef",
          "type": "string"
        },
        {
          "name": "destination",
          "type": "string"
        },
        {
          "name": "timestamp",
          "type": "uint256"
        },
        {
          "name": "passenger",
          "type": "address"
        }
      ],
      "name": "subscribedInsurance",
      "outputs": [
        {
          "name": "amount",
          "type": "uint256"
        }
      ],
      "payable": false,
      "stateMutability": "view",
      "type": "function"
    },
    {
      "constant": true,
      "inputs": [
        {
          "name": "flightKey",
          "type": "bytes32"
        }
      ],
      "name": "getFlightPrice",
      "outputs": [
        {
          "name": "price",
          "type": "uint256"
        }
      ],
      "payable": false,
      "stateMutability": "view",
      "type": "function"
    },
    {
      "constant": false,
      "inputs": [
        {
          "name": "airlineAddress",
          "type": "address"
        },
        {
          "name": "originAddress",
          "type": "address"
        }
      ],
      "name": "registerAirline",
      "outputs": [],
      "payable": false,
      "stateMutability": "nonpayable",
      "type": "function"
    },
    {
      "constant": false,
      "inputs": [
        {
          "name": "_takeOff",
          "type": "uint256"
        },
        {
          "name": "_landing",
          "type": "uint256"
        },
        {
          "name": "_flight",
          "type": "string"
        },
        {
          "name": "_price",
          "type": "uint256"
        },
        {
          "name": "_from",
          "type": "string"
        },
        {
          "name": "_to",
          "type": "string"
        },
        {
          "name": "originAddress",
          "type": "address"
        }
      ],
      "name": "registerFlight",
      "outputs": [],
      "payable": false,
      "stateMutability": "nonpayable",
      "type": "function"
    },
    {
      "constant": false,
      "inputs": [
        {
          "name": "flightKey",
          "type": "bytes32"
        },
        {
          "name": "amount",
          "type": "uint256"
        },
        {
          "name": "originAddress",
          "type": "address"
        }
      ],
      "name": "book",
      "outputs": [],
      "payable": true,
      "stateMutability": "payable",
      "type": "function"
    },
    {
      "constant": false,
      "inputs": [
        {
          "name": "originAddress",
          "type": "address"
        }
      ],
      "name": "pay",
      "outputs": [],
      "payable": false,
      "stateMutability": "nonpayable",
      "type": "function"
    },
    {
      "constant": false,
      "inputs": [
        {
          "name": "originAddress",
          "type": "address"
        }
      ],
      "name": "fund",
      "outputs": [],
      "payable": true,
      "stateMutability": "payable",
      "type": "function"
    },
    {
      "constant": false,
      "inputs": [
        {
          "name": "flightKey",
          "type": "bytes32"
        },
        {
          "name": "statusCode",
          "type": "uint8"
        }
      ],
      "name": "processFlightStatus",
      "outputs": [],
      "payable": false,
      "stateMutability": "nonpayable",
      "type": "function"
    }
  ],
  "bytecode": "0x60806040526001600060146101000a81548160ff021916908315150217905550600060085534801561003057600080fd5b5060405160208061324783398101806040528101908080519060200190929190505050336000806101000a81548173ffffffffffffffffffffffffffffffffffffffff021916908373ffffffffffffffffffffffffffffffffffffffff16021790555080600460006101000a81548173ffffffffffffffffffffffffffffffffffffffff021916908373ffffffffffffffffffffffffffffffffffffffff1602179055506001600381905550600160026000600460009054906101000a900473ffffffffffffffffffffffffffffffffffffffff1673ffffffffffffffffffffffffffffffffffffffff1673ffffffffffffffffffffffffffffffffffffffff16815260200190815260200160002060000160006101000a81548160ff021916908315150217905550506130de806101696000396000f300608060405260043610610133576000357c0100000000000000000000000000000000000000000000000000000000900463ffffffff1680630829f2301461023e5780630a401086146102835780630c11dedd146102b25780630f9429b7146102f5578063110466ed1461033357806320c5375e1461036257806323024408146105445780632c388d5d1461057a5780633d21d827146105bd57806341684769146106065780634819cf0c1461066c578063536fff6c146106c357806361dba32a1461071e5780636d81d0fd146107795780637a9262a214610822578063af6c6da914610879578063b75ad6021461094e578063bf32cbe414610a3f578063c3c5a54714610a6a578063c7ba501814610ac5578063ebb4ed2214610b28578063f53aa2e214610b76578063f81945c314610ba1575b60011515600160003373ffffffffffffffffffffffffffffffffffffffff1673ffffffffffffffffffffffffffffffffffffffff16815260200190815260200160002060009054906101000a900460ff161515141515610221576040517f08c379a000000000000000000000000000000000000000000000000000000000815260040180806020018281038252602c8152602001807f41646472657373206e6f7420617574686f72697a656420746f2063616c6c207481526020017f6869732066756e6374696f6e000000000000000000000000000000000000000081525060400191505060405180910390fd5b60008036905014151561023357600080fd5b61023c33610c8e565b005b34801561024a57600080fd5b5061026d6004803603810190808035600019169060200190929190505050610ee7565b6040518082815260200191505060405180910390f35b34801561028f57600080fd5b50610298610f0f565b604051808215151515815260200191505060405180910390f35b3480156102be57600080fd5b506102f3600480360381019080803573ffffffffffffffffffffffffffffffffffffffff169060200190929190505050610f22565b005b34801561030157600080fd5b506103316004803603810190808035600019169060200190929190803560ff1690602001909291905050506112d5565b005b34801561033f57600080fd5b50610360600480360381019080803515159060200190929190505050611634565b005b34801561036e57600080fd5b5061039160048036038101908080356000191690602001909291905050506117c8565b604051808a1515151581526020018960ff1660ff1681526020018881526020018781526020018673ffffffffffffffffffffffffffffffffffffffff1673ffffffffffffffffffffffffffffffffffffffff168152602001806020018581526020018060200180602001848103845288818151815260200191508051906020019080838360005b83811015610433578082015181840152602081019050610418565b50505050905090810190601f1680156104605780820380516001836020036101000a031916815260200191505b50848103835286818151815260200191508051906020019080838360005b8381101561049957808201518184015260208101905061047e565b50505050905090810190601f1680156104c65780820380516001836020036101000a031916815260200191505b50848103825285818151815260200191508051906020019080838360005b838110156104ff5780820151818401526020810190506104e4565b50505050905090810190601f16801561052c5780820380516001836020036101000a031916815260200191505b509c5050505050505050505050505060405180910390f35b610578600480360381019080803573ffffffffffffffffffffffffffffffffffffffff169060200190929190505050610c8e565b005b34801561058657600080fd5b506105bb600480360381019080803573ffffffffffffffffffffffffffffffffffffffff169060200190929190505050611a18565b005b3480156105c957600080fd5b506105e860048036038101908080359060200190929190505050611be0565b60405180826000191660001916815260200191505060405180910390f35b34801561061257600080fd5b50610647600480360381019080803573ffffffffffffffffffffffffffffffffffffffff169060200190929190505050611c03565b6040518083151515158152602001821515151581526020019250505060405180910390f35b34801561067857600080fd5b50610681611c41565b604051808273ffffffffffffffffffffffffffffffffffffffff1673ffffffffffffffffffffffffffffffffffffffff16815260200191505060405180910390f35b3480156106cf57600080fd5b50610704600480360381019080803573ffffffffffffffffffffffffffffffffffffffff169060200190929190505050611c67565b604051808215151515815260200191505060405180910390f35b34801561072a57600080fd5b5061075f600480360381019080803573ffffffffffffffffffffffffffffffffffffffff169060200190929190505050611c87565b604051808215151515815260200191505060405180910390f35b34801561078557600080fd5b50610820600480360381019080803590602001909291908035906020019092919080359060200190820180359060200191909192939192939080359060200190929190803590602001908201803590602001919091929391929390803590602001908201803590602001919091929391929390803573ffffffffffffffffffffffffffffffffffffffff169060200190929190505050611ce0565b005b34801561082e57600080fd5b50610863600480360381019080803573ffffffffffffffffffffffffffffffffffffffff1690602001909291905050506122c8565b6040518082815260200191505060405180910390f35b34801561088557600080fd5b50610930600480360381019080803590602001908201803590602001908080601f0160208091040260200160405190810160405280939291908181526020018383808284378201915050505050509192919290803590602001908201803590602001908080601f0160208091040260200160405190810160405280939291908181526020018383808284378201915050505050509192919290803590602001909291905050506122e0565b60405180826000191660001916815260200191505060405180910390f35b34801561095a57600080fd5b50610a25600480360381019080803590602001908201803590602001908080601f0160208091040260200160405190810160405280939291908181526020018383808284378201915050505050509192919290803590602001908201803590602001908080601f016020809104026020016040519081016040528093929190818152602001838380828437820191505050505050919291929080359060200190929190803573ffffffffffffffffffffffffffffffffffffffff169060200190929190505050612417565b604051808215151515815260200191505060405180910390f35b348015610a4b57600080fd5b50610a5461249b565b6040518082815260200191505060405180910390f35b348015610a7657600080fd5b50610aab600480360381019080803573ffffffffffffffffffffffffffffffffffffffff1690602001909291905050506124a1565b604051808215151515815260200191505060405180910390f35b348015610ad157600080fd5b50610b26600480360381019080803573ffffffffffffffffffffffffffffffffffffffff169060200190929190803573ffffffffffffffffffffffffffffffffffffffff1690602001909291905050506124fa565b005b610b74600480360381019080803560001916906020019092919080359060200190929190803573ffffffffffffffffffffffffffffffffffffffff16906020019092919050505061279a565b005b348015610b8257600080fd5b50610b8b612b6a565b6040518082815260200191505060405180910390f35b348015610bad57600080fd5b50610c78600480360381019080803590602001908201803590602001908080601f0160208091040260200160405190810160405280939291908181526020018383808284378201915050505050509192919290803590602001908201803590602001908080601f016020809104026020016040519081016040528093929190818152602001838380828437820191505050505050919291929080359060200190929190803573ffffffffffffffffffffffffffffffffffffffff169060200190929190505050612b70565b6040518082815260200191505060405180910390f35b600060149054906101000a900460ff161515610d38576040517f08c379a00000000000000000000000000000000000000000000000000000000081526004018080602001828103825260258152602001807f436f6e74726163742069732063757272656e746c79206e6f74206f706572617481526020017f696f6e616c00000000000000000000000000000000000000000000000000000081525060400191505060405180910390fd5b60011515600160003373ffffffffffffffffffffffffffffffffffffffff1673ffffffffffffffffffffffffffffffffffffffff16815260200190815260200160002060009054906101000a900460ff161515141515610e26576040517f08c379a000000000000000000000000000000000000000000000000000000000815260040180806020018281038252602c8152602001807f41646472657373206e6f7420617574686f72697a656420746f2063616c6c207481526020017f6869732066756e6374696f6e000000000000000000000000000000000000000081525060400191505060405180910390fd5b6001600260008373ffffffffffffffffffffffffffffffffffffffff1673ffffffffffffffffffffffffffffffffffffffff16815260200190815260200160002060000160016101000a81548160ff0219169083151502179055507fb436c2bf863ccd7b8f63171201efd4792066b4ce8e543dde9c3e9e9ab98e216c81604051808273ffffffffffffffffffffffffffffffffffffffff1673ffffffffffffffffffffffffffffffffffffffff16815260200191505060405180910390a150565b6000600660008360001916600019168152602001908152602001600020600501549050919050565b600060149054906101000a900460ff1681565b60008060149054906101000a900460ff161515610fcd576040517f08c379a00000000000000000000000000000000000000000000000000000000081526004018080602001828103825260258152602001807f436f6e74726163742069732063757272656e746c79206e6f74206f706572617481526020017f696f6e616c00000000000000000000000000000000000000000000000000000081525060400191505060405180910390fd5b60011515600160003373ffffffffffffffffffffffffffffffffffffffff1673ffffffffffffffffffffffffffffffffffffffff16815260200190815260200160002060009054906101000a900460ff1615151415156110bb576040517f08c379a000000000000000000000000000000000000000000000000000000000815260040180806020018281038252602c8152602001807f41646472657373206e6f7420617574686f72697a656420746f2063616c6c207481526020017f6869732066756e6374696f6e000000000000000000000000000000000000000081525060400191505060405180910390fd5b6000600960008473ffffffffffffffffffffffffffffffffffffffff1673ffffffffffffffffffffffffffffffffffffffff16815260200190815260200160002054111515611198576040517f08c379a000000000000000000000000000000000000000000000000000000000815260040180806020018281038252602b8152602001807f4e6f20616d6f756e7420746f206265207472616e7366657272656420746f207481526020017f686973206164647265737300000000000000000000000000000000000000000081525060400191505060405180910390fd5b600960008373ffffffffffffffffffffffffffffffffffffffff1673ffffffffffffffffffffffffffffffffffffffff1681526020019081526020016000205490506000600960008473ffffffffffffffffffffffffffffffffffffffff1673ffffffffffffffffffffffffffffffffffffffff168152602001908152602001600020819055508173ffffffffffffffffffffffffffffffffffffffff166108fc829081150290604051600060405180830381858888f19350505050158015611265573d6000803e3d6000fd5b507f737c69225d647e5994eab1a6c301bf6d9232beb2759ae1e27a8966b4732bc4898282604051808373ffffffffffffffffffffffffffffffffffffffff1673ffffffffffffffffffffffffffffffffffffffff1681526020018281526020019250505060405180910390a15050565b60008260066000826000191660001916815260200190815260200160002060000160009054906101000a900460ff161515611378576040517f08c379a000000000000000000000000000000000000000000000000000000000815260040180806020018281038252601a8152602001807f5468697320666c6967687420646f6573206e6f7420657869737400000000000081525060200191505060405180910390fd5b600060149054906101000a900460ff161515611422576040517f08c379a00000000000000000000000000000000000000000000000000000000081526004018080602001828103825260258152602001807f436f6e74726163742069732063757272656e746c79206e6f74206f706572617481526020017f696f6e616c00000000000000000000000000000000000000000000000000000081525060400191505060405180910390fd5b60011515600160003373ffffffffffffffffffffffffffffffffffffffff1673ffffffffffffffffffffffffffffffffffffffff16815260200190815260200160002060009054906101000a900460ff161515141515611510576040517f08c379a000000000000000000000000000000000000000000000000000000000815260040180806020018281038252602c8152602001807f41646472657373206e6f7420617574686f72697a656420746f2063616c6c207481526020017f6869732066756e6374696f6e000000000000000000000000000000000000000081525060400191505060405180910390fd5b83600060066000836000191660001916815260200190815260200160002060000160019054906101000a900460ff1660ff161415156115dd576040517f08c379a00000000000000000000000000000000000000000000000000000000081526004018080602001828103825260268152602001807f5468697320666c696768742068617320616c7265616479206265656e2070726f81526020017f636573736564000000000000000000000000000000000000000000000000000081525060400191505060405180910390fd5b6006600086600019166000191681526020019081526020016000209250838360000160016101000a81548160ff021916908360ff16021790555060148460ff16141561162d5761162c85612be7565b5b5050505050565b6000809054906101000a900473ffffffffffffffffffffffffffffffffffffffff1673ffffffffffffffffffffffffffffffffffffffff163373ffffffffffffffffffffffffffffffffffffffff161415156116f8576040517f08c379a000000000000000000000000000000000000000000000000000000000815260040180806020018281038252601c8152602001807f43616c6c6572206973206e6f7420636f6e7472616374206f776e65720000000081525060200191505060405180910390fd5b80600060149054906101000a900460ff161515811515141515156117aa576040517f08c379a00000000000000000000000000000000000000000000000000000000081526004018080602001828103825260278152602001807f436f6e747261637420616c726561647920696e2074686520737461746520726581526020017f717565737465640000000000000000000000000000000000000000000000000081525060400191505060405180910390fd5b81600060146101000a81548160ff0219169083151502179055505050565b60066020528060005260406000206000915090508060000160009054906101000a900460ff16908060000160019054906101000a900460ff16908060010154908060020154908060030160009054906101000a900473ffffffffffffffffffffffffffffffffffffffff1690806004018054600181600116156101000203166002900480601f0160208091040260200160405190810160405280929190818152602001828054600181600116156101000203166002900480156118cc5780601f106118a1576101008083540402835291602001916118cc565b820191906000526020600020905b8154815290600101906020018083116118af57829003601f168201915b505050505090806005015490806006018054600181600116156101000203166002900480601f0160208091040260200160405190810160405280929190818152602001828054600181600116156101000203166002900480156119705780601f1061194557610100808354040283529160200191611970565b820191906000526020600020905b81548152906001019060200180831161195357829003601f168201915b505050505090806007018054600181600116156101000203166002900480601f016020809104026020016040519081016040528092919081815260200182805460018160011615610100020316600290048015611a0e5780601f106119e357610100808354040283529160200191611a0e565b820191906000526020600020905b8154815290600101906020018083116119f157829003601f168201915b5050505050905089565b6000809054906101000a900473ffffffffffffffffffffffffffffffffffffffff1673ffffffffffffffffffffffffffffffffffffffff163373ffffffffffffffffffffffffffffffffffffffff16141515611adc576040517f08c379a000000000000000000000000000000000000000000000000000000000815260040180806020018281038252601c8152602001807f43616c6c6572206973206e6f7420636f6e7472616374206f776e65720000000081525060200191505060405180910390fd5b600060149054906101000a900460ff161515611b86576040517f08c379a00000000000000000000000000000000000000000000000000000000081526004018080602001828103825260258152602001807f436f6e74726163742069732063757272656e746c79206e6f74206f706572617481526020017f696f6e616c00000000000000000000000000000000000000000000000000000081525060400191505060405180910390fd5b60018060008373ffffffffffffffffffffffffffffffffffffffff1673ffffffffffffffffffffffffffffffffffffffff16815260200190815260200160002060006101000a81548160ff02191690831515021790555050565b600781815481101515611bef57fe5b906000526020600020016000915090505481565b60026020528060005260406000206000915090508060000160009054906101000a900460ff16908060000160019054906101000a900460ff16905082565b600460009054906101000a900473ffffffffffffffffffffffffffffffffffffffff1681565b60016020528060005260406000206000915054906101000a900460ff1681565b6000600260008373ffffffffffffffffffffffffffffffffffffffff1673ffffffffffffffffffffffffffffffffffffffff16815260200190815260200160002060000160019054906101000a900460ff169050919050565b611ce8612fa5565b60008060149054906101000a900460ff161515611d93576040517f08c379a00000000000000000000000000000000000000000000000000000000081526004018080602001828103825260258152602001807f436f6e74726163742069732063757272656e746c79206e6f74206f706572617481526020017f696f6e616c00000000000000000000000000000000000000000000000000000081525060400191505060405180910390fd5b60011515600160003373ffffffffffffffffffffffffffffffffffffffff1673ffffffffffffffffffffffffffffffffffffffff16815260200190815260200160002060009054906101000a900460ff161515141515611e81576040517f08c379a000000000000000000000000000000000000000000000000000000000815260040180806020018281038252602c8152602001807f41646472657373206e6f7420617574686f72697a656420746f2063616c6c207481526020017f6869732066756e6374696f6e000000000000000000000000000000000000000081525060400191505060405180910390fd5b428c111515611f1e576040517f08c379a00000000000000000000000000000000000000000000000000000000081526004018080602001828103825260248152602001807f4120666c696768742063616e6e6f742074616b65206f666620696e207468652081526020017f706173740000000000000000000000000000000000000000000000000000000081525060400191505060405180910390fd5b8b8b111515611fbb576040517f08c379a00000000000000000000000000000000000000000000000000000000081526004018080602001828103825260268152602001807f4120666c696768742063616e6e6f74206c616e64206265666f72652074616b6981526020017f6e67206f6666000000000000000000000000000000000000000000000000000081525060400191505060405180910390fd5b61012060405190810160405280600115158152602001600060ff1681526020018d81526020018c81526020018473ffffffffffffffffffffffffffffffffffffffff1681526020018b8b8080601f016020809104026020016040519081016040528093929190818152602001838380828437820191505050505050815260200189815260200188888080601f016020809104026020016040519081016040528093929190818152602001838380828437820191505050505050815260200186868080601f0160208091040260200160405190810160405280939291908181526020018383808284378201915050505050508152509150898986868e6040516020018086868082843782019150508484808284378201915050828152602001955050505050506040516020818303038152906040526040518082805190602001908083835b60208310151561212457805182526020820191506020810190506020830392506120ff565b6001836020036101000a038019825116818451168082178552505050505050905001915050604051809103902090508160066000836000191660001916815260200190815260200160002060008201518160000160006101000a81548160ff02191690831515021790555060208201518160000160016101000a81548160ff021916908360ff160217905550604082015181600101556060820151816002015560808201518160030160006101000a81548173ffffffffffffffffffffffffffffffffffffffff021916908373ffffffffffffffffffffffffffffffffffffffff16021790555060a082015181600401908051906020019061222792919061300d565b5060c0820151816005015560e082015181600601908051906020019061224e92919061300d565b5061010082015181600701908051906020019061226c92919061300d565b509050506122b4600160078390806001815401808255809150509060018203906000526020600020016000909192909190915090600019169055612f8c90919063ffffffff16565b600881905550505050505050505050505050565b60096020528060005260406000206000915090505481565b60008383836040516020018084805190602001908083835b60208310151561231d57805182526020820191506020810190506020830392506122f8565b6001836020036101000a03801982511681845116808217855250505050505090500183805190602001908083835b602083101515612370578051825260208201915060208101905060208303925061234b565b6001836020036101000a03801982511681845116808217855250505050505090500182815260200193505050506040516020818303038152906040526040518082805190602001908083835b6020831015156123e157805182526020820191506020810190506020830392506123bc565b6001836020036101000a038019825116818451168082178552505050505050905001915050604051809103902090509392505050565b6000806124258686866122e0565b905060066000826000191660001916815260200190815260200160002060080160008473ffffffffffffffffffffffffffffffffffffffff1673ffffffffffffffffffffffffffffffffffffffff16815260200190815260200160002060009054906101000a900460ff16915050949350505050565b60085481565b6000600260008373ffffffffffffffffffffffffffffffffffffffff1673ffffffffffffffffffffffffffffffffffffffff16815260200190815260200160002060000160009054906101000a900460ff169050919050565b600060149054906101000a900460ff1615156125a4576040517f08c379a00000000000000000000000000000000000000000000000000000000081526004018080602001828103825260258152602001807f436f6e74726163742069732063757272656e746c79206e6f74206f706572617481526020017f696f6e616c00000000000000000000000000000000000000000000000000000081525060400191505060405180910390fd5b60011515600160003373ffffffffffffffffffffffffffffffffffffffff1673ffffffffffffffffffffffffffffffffffffffff16815260200190815260200160002060009054906101000a900460ff161515141515612692576040517f08c379a000000000000000000000000000000000000000000000000000000000815260040180806020018281038252602c8152602001807f41646472657373206e6f7420617574686f72697a656420746f2063616c6c207481526020017f6869732066756e6374696f6e000000000000000000000000000000000000000081525060400191505060405180910390fd5b6003600081548092919060010191905055506001600260008473ffffffffffffffffffffffffffffffffffffffff1673ffffffffffffffffffffffffffffffffffffffff16815260200190815260200160002060000160006101000a81548160ff0219169083151502179055507f3bfdb99fbcef24ea247a0804fbb61674b13e92dafc59610dfcac7321d700796a8183604051808373ffffffffffffffffffffffffffffffffffffffff1673ffffffffffffffffffffffffffffffffffffffff1681526020018273ffffffffffffffffffffffffffffffffffffffff1673ffffffffffffffffffffffffffffffffffffffff1681526020019250505060405180910390a15050565b60008060149054906101000a900460ff161515612845576040517f08c379a00000000000000000000000000000000000000000000000000000000081526004018080602001828103825260258152602001807f436f6e74726163742069732063757272656e746c79206e6f74206f706572617481526020017f696f6e616c00000000000000000000000000000000000000000000000000000081525060400191505060405180910390fd5b60011515600160003373ffffffffffffffffffffffffffffffffffffffff1673ffffffffffffffffffffffffffffffffffffffff16815260200190815260200160002060009054906101000a900460ff161515141515612933576040517f08c379a000000000000000000000000000000000000000000000000000000000815260040180806020018281038252602c8152602001807f41646472657373206e6f7420617574686f72697a656420746f2063616c6c207481526020017f6869732066756e6374696f6e000000000000000000000000000000000000000081525060400191505060405180910390fd5b8360066000826000191660001916815260200190815260200160002060000160009054906101000a900460ff1615156129d4576040517f08c379a000000000000000000000000000000000000000000000000000000000815260040180806020018281038252601a8152602001807f5468697320666c6967687420646f6573206e6f7420657869737400000000000081525060200191505060405180910390fd5b600660008660001916600019168152602001908152602001600020915060018260080160008573ffffffffffffffffffffffffffffffffffffffff1673ffffffffffffffffffffffffffffffffffffffff16815260200190815260200160002060006101000a81548160ff021916908315150217905550838260090160008573ffffffffffffffffffffffffffffffffffffffff1673ffffffffffffffffffffffffffffffffffffffff1681526020019081526020016000208190555060058390806001815401808255809150509060018203906000526020600020016000909192909190916101000a81548173ffffffffffffffffffffffffffffffffffffffff021916908373ffffffffffffffffffffffffffffffffffffffff160217905550508160050154600960008460030160009054906101000a900473ffffffffffffffffffffffffffffffffffffffff1673ffffffffffffffffffffffffffffffffffffffff1673ffffffffffffffffffffffffffffffffffffffff168152602001908152602001600020819055505050505050565b60035481565b600080612b7e8686866122e0565b905060066000826000191660001916815260200190815260200160002060090160008473ffffffffffffffffffffffffffffffffffffffff1673ffffffffffffffffffffffffffffffffffffffff16815260200190815260200160002054915050949350505050565b600080600060149054906101000a900460ff161515612c94576040517f08c379a00000000000000000000000000000000000000000000000000000000081526004018080602001828103825260258152602001807f436f6e74726163742069732063757272656e746c79206e6f74206f706572617481526020017f696f6e616c00000000000000000000000000000000000000000000000000000081525060400191505060405180910390fd5b8260066000826000191660001916815260200190815260200160002060000160009054906101000a900460ff161515612d35576040517f08c379a000000000000000000000000000000000000000000000000000000000815260040180806020018281038252601a8152602001807f5468697320666c6967687420646f6573206e6f7420657869737400000000000081525060200191505060405180910390fd5b6006600085600019166000191681526020019081526020016000209250600091505b600580549050821015612f8657826009016000600584815481101515612d7957fe5b9060005260206000200160009054906101000a900473ffffffffffffffffffffffffffffffffffffffff1673ffffffffffffffffffffffffffffffffffffffff1673ffffffffffffffffffffffffffffffffffffffff1681526020019081526020016000205460096000600585815481101515612df257fe5b9060005260206000200160009054906101000a900473ffffffffffffffffffffffffffffffffffffffff1673ffffffffffffffffffffffffffffffffffffffff1673ffffffffffffffffffffffffffffffffffffffff168152602001908152602001600020819055507f9c9e0cdb1670e88302408e5b941dc636f63a3293204694bb68910fcf3d9305f3600583815481101515612e8b57fe5b9060005260206000200160009054906101000a900473ffffffffffffffffffffffffffffffffffffffff16846009016000600586815481101515612ecb57fe5b9060005260206000200160009054906101000a900473ffffffffffffffffffffffffffffffffffffffff1673ffffffffffffffffffffffffffffffffffffffff1673ffffffffffffffffffffffffffffffffffffffff16815260200190815260200160002054604051808373ffffffffffffffffffffffffffffffffffffffff1673ffffffffffffffffffffffffffffffffffffffff1681526020018281526020019250505060405180910390a18180600101925050612d57565b50505050565b6000828211151515612f9a57fe5b818303905092915050565b61012060405190810160405280600015158152602001600060ff1681526020016000815260200160008152602001600073ffffffffffffffffffffffffffffffffffffffff168152602001606081526020016000815260200160608152602001606081525090565b828054600181600116156101000203166002900490600052602060002090601f016020900481019282601f1061304e57805160ff191683800117855561307c565b8280016001018555821561307c579182015b8281111561307b578251825591602001919060010190613060565b5b509050613089919061308d565b5090565b6130af91905b808211156130ab576000816000905550600101613093565b5090565b905600a165627a7a72305820e6d649d70694e792dea49d52e158b2cc14fad1337459d21aac2f68da2da7d2860029",
  "source": "pragma solidity ^0.4.25;\n\nimport \"../node_modules/openzeppelin-solidity/contracts/math/SafeMath.sol\";\n\n\ncontract FlightSuretyData {\n    using SafeMath for uint;\n\n    //////////////////////// DATA VARIABLES\n\n    // Account used to deploy contract\n    address private contractOwner;\n    // Blocks all state changes throughout the contract if false\n    bool public operational = true;\n    // List addresses allowed to call this contract\n    mapping(address => bool) public authorizedCallers;\n\n    // Airlines\n    struct Airline {\n        bool registered;\n        bool funded;\n    }\n\n    mapping(address => Airline) public airlines;\n    uint public registeredAirlinesCount;\n    address public firstAirline;\n\n    // Flights\n    struct Flight {\n        bool isRegistered;\n        uint8 statusCode;\n        uint256 takeOff;\n        uint256 landing;\n        address airline;\n        string flightRef;\n        uint price;\n        string from;\n        string to;\n        mapping(address => bool) bookings;\n        mapping(address => uint) insurances;\n\n    }\n\n    /* Have to be out of the Flight struct type,\n    otherwise can't use FLight constructor in the registerFLight function.\n    (unlike mapping object, array argument can't be omitted)\n    */\n    address[] internal passengers;\n\n    mapping(bytes32 => Flight) public flights;\n    bytes32[] public flightKeys;\n    uint public indexFlightKeys = 0;\n\n    /* Withdrawals:\n    - passengers: insurance claims\n    - airlines: flights prices paid by passengers\n    */\n\n    mapping(address => uint) public withdrawals;\n\n    ////////////////////////// EVENTS\n    event Paid(address recipient, uint amount);\n    event Funded(address airline);\n    event AirlineRegistered(address origin, address newAirline);\n    event Credited(address passenger, uint amount);\n    ///////////////////////// CONSTRUCTOR\n\n    constructor(address _firstAirline) public {\n        contractOwner = msg.sender;\n\n        // register first airline at deployment\n        firstAirline = _firstAirline;\n        registeredAirlinesCount = 1;\n        airlines[firstAirline].registered = true;\n    }\n\n    ////////////////////////// MODIFIERS\n    /**\n    * @dev Modifier that requires the \"operational\" boolean variable to be \"true\"\n    *      This is used on all state changing functions to pause the contract in\n    *      the event there is an issue that needs to be fixed\n    */\n    modifier requireIsOperational() {\n        require(operational, \"Contract is currently not operational\");\n        // All modifiers require an \"_\" which indicates where the function body will be added\n        _;\n    }\n\n    /**\n    * @dev Modifier that requires the \"ContractOwner\" account to be the function caller\n    */\n    modifier requireContractOwner() {\n        require(msg.sender == contractOwner, \"Caller is not contract owner\");\n        _;\n    }\n\n    // restrict function calls to previously authorized addresses\n    modifier callerAuthorized() {\n        require(authorizedCallers[msg.sender] == true, \"Address not authorized to call this function\");\n        _;\n    }\n\n    // To avoid spending gas trying to put the contract in a state it already is in\n    modifier differentModeRequest(bool status) {\n        require(status != operational, \"Contract already in the state requested\");\n        _;\n    }\n\n    modifier flightRegistered(bytes32 flightKey) {\n        require(flights[flightKey].isRegistered, \"This flight does not exist\");\n        _;\n    }\n\n    modifier valWithinRange(uint val, uint low, uint up) {\n        require(val < up, \"Value higher than max allowed\");\n        require(val > low, \"Value lower than min allowed\");\n        _;\n    }\n\n    /* do not process a flight more than once,\n    which could e.g result in the passengers being credited their insurance amount twice.\n    */\n    modifier notYetProcessed(bytes32 flightKey) {\n        require(flights[flightKey].statusCode == 0, \"This flight has already been processed\");\n        _;\n    }\n    /////////////////////////// UTILITY FUNCTIONS\n    /**\n    * @dev Sets contract operations on/off\n    *\n    * When operational mode is disabled, all write transactions except for this one will fail\n    */\n\n    function setOperatingStatus(bool mode) external requireContractOwner\n    differentModeRequest(mode)\n    {\n        operational = mode;\n    }\n\n    // function to authorize addresses (especially the App contract!) to call functions from flighSuretyData contract\n    function authorizeCaller(address callerAddress)\n    external\n    requireContractOwner\n    requireIsOperational\n    {\n        authorizedCallers[callerAddress] = true;\n    }\n\n    function hasFunded(address airlineAddress)\n    external\n    view\n    returns (bool _hasFunded)\n    {\n        _hasFunded = airlines[airlineAddress].funded;\n    }\n\n    function isRegistered(address airlineAddress)\n    external\n    view\n    returns (bool _registered)\n    {\n        _registered = airlines[airlineAddress].registered;\n    }\n\n    function getFlightKey\n    (\n        string flightRef,\n        string destination,\n        uint256 timestamp\n    )\n    public\n    pure\n    returns(bytes32)\n    {\n        return keccak256(abi.encodePacked(flightRef, destination, timestamp));\n    }\n\n    function paxOnFlight\n    (\n        string flightRef,\n        string destination,\n        uint256 timestamp,\n        address passenger\n    )\n    public\n    view\n    returns(bool onFlight)\n    {\n        bytes32 flightKey = getFlightKey(flightRef, destination, timestamp);\n        onFlight = flights[flightKey].bookings[passenger];\n    }\n\n    function subscribedInsurance\n    (\n        string flightRef,\n        string destination,\n        uint256 timestamp,\n        address passenger\n    )\n    public\n    view\n    returns(uint amount)\n    {\n        bytes32 flightKey = getFlightKey(flightRef, destination, timestamp);\n        amount = flights[flightKey].insurances[passenger];\n    }\n\n    function getFlightPrice(bytes32 flightKey)\n    external\n    view\n    returns (uint price)\n    {\n        price = flights[flightKey].price;\n    }\n\n    //////////////////////// SMART CONTRACT FUNCTIONS\n   /**\n    * @dev Add an airline to the registration queue\n    *      Can only be called from FlightSuretyApp contract\n    *\n    */\n    function registerAirline\n    (\n        address airlineAddress,\n        address originAddress\n    )\n    external\n    requireIsOperational\n    callerAuthorized\n    {\n        registeredAirlinesCount++;\n        airlines[airlineAddress].registered = true;\n        emit AirlineRegistered(originAddress, airlineAddress);\n    }\n\n    function registerFlight\n    (\n        uint _takeOff,\n        uint _landing,\n        string _flight,\n        uint _price,\n        string _from,\n        string _to,\n        address originAddress\n    )\n    external\n    requireIsOperational\n    callerAuthorized\n    {\n        require(_takeOff > now, \"A flight cannot take off in the past\");\n        require(_landing > _takeOff, \"A flight cannot land before taking off\");\n\n        Flight memory flight = Flight(\n            true,\n            0,\n            _takeOff,\n            _landing,\n            originAddress,\n            _flight,\n            _price,\n            _from,\n            _to\n        );\n        bytes32 flightKey = keccak256(abi.encodePacked(_flight, _to, _landing));\n        flights[flightKey] = flight;\n        indexFlightKeys = flightKeys.push(flightKey).sub(1);\n        // event emission in app contract\n    }\n\n\n   /**\n    * @dev Passenger Buys insurance for a flight\n    *\n    */\n    function book(bytes32 flightKey, uint amount, address originAddress)\n    external\n    requireIsOperational\n    callerAuthorized\n    flightRegistered(flightKey)\n    payable\n    {\n        Flight storage flight = flights[flightKey];\n        flight.bookings[originAddress] = true;\n        flight.insurances[originAddress] = amount;\n        passengers.push(originAddress);\n        withdrawals[flight.airline] = flight.price;\n    }\n\n    function creditInsurees(bytes32 flightKey)\n    internal\n    requireIsOperational\n    flightRegistered(flightKey)\n    {\n        // get flight\n        Flight storage flight = flights[flightKey];\n        // loop over passengers and credit them their insurance amount\n        for (uint i = 0; i < passengers.length; i++) {\n            withdrawals[passengers[i]] = flight.insurances[passengers[i]];\n            emit Credited(passengers[i], flight.insurances[passengers[i]]);\n        }\n    }\n\n\n    /**\n     *  @dev Transfers eligible payout funds to insuree or airline\n     *\n    */\n    function pay(address originAddress)\n    external\n    requireIsOperational\n    callerAuthorized\n    {\n        // Check-Effect-Interaction pattern to protect against re entrancy attack\n        // Check\n        require(withdrawals[originAddress] > 0, \"No amount to be transferred to this address\");\n        // Effect\n        uint amount = withdrawals[originAddress];\n        withdrawals[originAddress] = 0;\n        // Interaction\n        originAddress.transfer(amount);\n        emit Paid(originAddress, amount);\n    }\n\n   /**\n    * @dev Initial funding for the insurance. Unless there are too many delayed flights\n    *      resulting in insurance payouts, the contract should be self-sustaining\n    *\n    */\n    function fund(address originAddress)\n    public\n    requireIsOperational\n    callerAuthorized\n    payable\n    {\n        airlines[originAddress].funded = true;\n        emit Funded(originAddress);\n    }\n\n    function processFlightStatus\n    (\n        bytes32 flightKey,\n        uint8 statusCode\n    )\n    external\n    flightRegistered(flightKey)\n    requireIsOperational\n    callerAuthorized\n    notYetProcessed(flightKey)\n    {\n        // Check (modifiers)\n        Flight storage flight = flights[flightKey];\n        // Effect\n        flight.statusCode = statusCode;\n        // Interact\n        // 20 = \"flight delay due to airline\"\n        if (statusCode == 20) {\n            creditInsurees(flightKey);\n        }\n    }\n\n    /**\n    * @dev Fallback function for funding smart contract.\n    *\n    */\n    function() external callerAuthorized payable\n    {\n        require(msg.data.length == 0);\n        fund(msg.sender);\n    }\n}\n",
  "sourcePath": "/Users/saro/Desktop/Blockchain/Project4/contracts/FlightSuretyData.sol",
  "compiler": {
    "name": "solc",
    "version": "0.4.26+commit.4563c3fc.Emscripten.clang"
  },
  "schemaVersion": "3.0.20",
  "updatedAt": "2020-01-10T15:16:15.514Z",
  "networkType": "ethereum",
  "devdoc": {
    "methods": {
      "book(bytes32,uint256,address)": {
        "details": "Passenger Buys insurance for a flight    "
      },
      "fund(address)": {
        "details": "Initial funding for the insurance. Unless there are too many delayed flights     resulting in insurance payouts, the contract should be self-sustaining    "
      },
      "pay(address)": {
        "details": "Transfers eligible payout funds to insuree or airline    "
      },
      "registerAirline(address,address)": {
        "details": "Add an airline to the registration queue     Can only be called from FlightSuretyApp contract    "
      },
      "setOperatingStatus(bool)": {
        "details": "Sets contract operations on/off    * When operational mode is disabled, all write transactions except for this one will fail"
      }
    }
  },
  "userdoc": {
    "methods": {}
  }
}