{
  "contractName": "FlightSuretyApp",
  "abi": [
    {
      "constant": true,
      "inputs": [],
      "name": "operational",
      "outputs": [
        {
          "name": "",
          "type": "bool"
        }
      ],
      "payable": false,
      "stateMutability": "view",
      "type": "function"
    },
    {
      "constant": true,
      "inputs": [],
      "name": "minFund",
      "outputs": [
        {
          "name": "",
          "type": "uint256"
        }
      ],
      "payable": false,
      "stateMutability": "view",
      "type": "function"
    },
    {
      "constant": true,
      "inputs": [],
      "name": "REGISTRATION_FEE",
      "outputs": [
        {
          "name": "",
          "type": "uint256"
        }
      ],
      "payable": false,
      "stateMutability": "view",
      "type": "function"
    },
    {
      "constant": true,
      "inputs": [
        {
          "name": "",
          "type": "bytes32"
        }
      ],
      "name": "oracleResponses",
      "outputs": [
        {
          "name": "requester",
          "type": "address"
        },
        {
          "name": "isOpen",
          "type": "bool"
        }
      ],
      "payable": false,
      "stateMutability": "view",
      "type": "function"
    },
    {
      "inputs": [
        {
          "name": "dataContractAddress",
          "type": "address"
        }
      ],
      "payable": false,
      "stateMutability": "nonpayable",
      "type": "constructor"
    },
    {
      "anonymous": false,
      "inputs": [
        {
          "indexed": false,
          "name": "flightRef",
          "type": "string"
        },
        {
          "indexed": false,
          "name": "to",
          "type": "string"
        },
        {
          "indexed": false,
          "name": "landing",
          "type": "uint256"
        }
      ],
      "name": "FlightRegistered",
      "type": "event"
    },
    {
      "anonymous": false,
      "inputs": [
        {
          "indexed": false,
          "name": "recipient",
          "type": "address"
        }
      ],
      "name": "WithdrawRequest",
      "type": "event"
    },
    {
      "anonymous": false,
      "inputs": [
        {
          "indexed": false,
          "name": "flightRef",
          "type": "string"
        },
        {
          "indexed": false,
          "name": "destination",
          "type": "string"
        },
        {
          "indexed": false,
          "name": "timestamp",
          "type": "uint256"
        },
        {
          "indexed": false,
          "name": "statusCode",
          "type": "uint8"
        }
      ],
      "name": "FlightProcessed",
      "type": "event"
    },
    {
      "anonymous": false,
      "inputs": [
        {
          "indexed": false,
          "name": "indexes",
          "type": "uint8[3]"
        }
      ],
      "name": "OracleRegistered",
      "type": "event"
    },
    {
      "anonymous": false,
      "inputs": [
        {
          "indexed": false,
          "name": "flight",
          "type": "string"
        },
        {
          "indexed": false,
          "name": "destination",
          "type": "string"
        },
        {
          "indexed": false,
          "name": "timestamp",
          "type": "uint256"
        },
        {
          "indexed": false,
          "name": "status",
          "type": "uint8"
        }
      ],
      "name": "OracleReport",
      "type": "event"
    },
    {
      "anonymous": false,
      "inputs": [
        {
          "indexed": false,
          "name": "flight",
          "type": "string"
        },
        {
          "indexed": false,
          "name": "destination",
          "type": "string"
        },
        {
          "indexed": false,
          "name": "timestamp",
          "type": "uint256"
        },
        {
          "indexed": false,
          "name": "status",
          "type": "uint8"
        }
      ],
      "name": "FlightStatusInfo",
      "type": "event"
    },
    {
      "anonymous": false,
      "inputs": [
        {
          "indexed": false,
          "name": "index",
          "type": "uint8"
        },
        {
          "indexed": false,
          "name": "flight",
          "type": "string"
        },
        {
          "indexed": false,
          "name": "destination",
          "type": "string"
        },
        {
          "indexed": false,
          "name": "timestamp",
          "type": "uint256"
        }
      ],
      "name": "OracleRequest",
      "type": "event"
    },
    {
      "constant": false,
      "inputs": [
        {
          "name": "mode",
          "type": "bool"
        }
      ],
      "name": "setOperatingStatus",
      "outputs": [],
      "payable": false,
      "stateMutability": "nonpayable",
      "type": "function"
    },
    {
      "constant": true,
      "inputs": [
        {
          "name": "airlineToBeAdded",
          "type": "address"
        }
      ],
      "name": "votesLeft",
      "outputs": [
        {
          "name": "remainingVotes",
          "type": "uint256"
        }
      ],
      "payable": false,
      "stateMutability": "view",
      "type": "function"
    },
    {
      "constant": false,
      "inputs": [
        {
          "name": "airlineAddress",
          "type": "address"
        }
      ],
      "name": "registerAirline",
      "outputs": [],
      "payable": false,
      "stateMutability": "nonpayable",
      "type": "function"
    },
    {
      "constant": false,
      "inputs": [],
      "name": "fund",
      "outputs": [],
      "payable": true,
      "stateMutability": "payable",
      "type": "function"
    },
    {
      "constant": false,
      "inputs": [
        {
          "name": "takeOff",
          "type": "uint256"
        },
        {
          "name": "landing",
          "type": "uint256"
        },
        {
          "name": "flightRef",
          "type": "string"
        },
        {
          "name": "price",
          "type": "uint256"
        },
        {
          "name": "from",
          "type": "string"
        },
        {
          "name": "to",
          "type": "string"
        }
      ],
      "name": "registerFlight",
      "outputs": [],
      "payable": false,
      "stateMutability": "nonpayable",
      "type": "function"
    },
    {
      "constant": false,
      "inputs": [
        {
          "name": "_flight",
          "type": "string"
        },
        {
          "name": "_to",
          "type": "string"
        },
        {
          "name": "_landing",
          "type": "uint256"
        },
        {
          "name": "amount",
          "type": "uint256"
        }
      ],
      "name": "book",
      "outputs": [],
      "payable": true,
      "stateMutability": "payable",
      "type": "function"
    },
    {
      "constant": false,
      "inputs": [],
      "name": "withdraw",
      "outputs": [],
      "payable": false,
      "stateMutability": "nonpayable",
      "type": "function"
    },
    {
      "constant": false,
      "inputs": [
        {
          "name": "flight",
          "type": "string"
        },
        {
          "name": "destination",
          "type": "string"
        },
        {
          "name": "timestamp",
          "type": "uint256"
        }
      ],
      "name": "fetchFlightStatus",
      "outputs": [],
      "payable": false,
      "stateMutability": "nonpayable",
      "type": "function"
    },
    {
      "constant": false,
      "inputs": [],
      "name": "registerOracle",
      "outputs": [],
      "payable": true,
      "stateMutability": "payable",
      "type": "function"
    },
    {
      "constant": true,
      "inputs": [],
      "name": "getMyIndexes",
      "outputs": [
        {
          "name": "",
          "type": "uint8[3]"
        }
      ],
      "payable": false,
      "stateMutability": "view",
      "type": "function"
    },
    {
      "constant": false,
      "inputs": [
        {
          "name": "index",
          "type": "uint8"
        },
        {
          "name": "flight",
          "type": "string"
        },
        {
          "name": "destination",
          "type": "string"
        },
        {
          "name": "timestamp",
          "type": "uint256"
        },
        {
          "name": "statusCode",
          "type": "uint8"
        }
      ],
      "name": "submitOracleResponse",
      "outputs": [],
      "payable": false,
      "stateMutability": "nonpayable",
      "type": "function"
    }
  ],
  "bytecode": "0x6080604052678ac7230489e800006001556000600460006101000a81548160ff021916908360ff16021790555034801561003857600080fd5b50604051602080613976833981018060405281019080805190602001909291905050506001600260146101000a81548160ff02191690831515021790555033600260006101000a81548173ffffffffffffffffffffffffffffffffffffffff021916908373ffffffffffffffffffffffffffffffffffffffff160217905550806000806101000a81548173ffffffffffffffffffffffffffffffffffffffff021916908373ffffffffffffffffffffffffffffffffffffffff1602179055505061386f806101076000396000f3006080604052600436106100db576000357c0100000000000000000000000000000000000000000000000000000000900463ffffffff1680630a401086146100e0578063110466ed1461010f5780631eda3eb81461013e578063339d2590146101695780633bd919f1146101735780633ccfd60b146101fc5780635f1cc0e61461021357806364b4f75114610266578063807819e0146102915780639068af281461030857806396ee10cd146103655780639e8c9bb9146103bf578063b60d42881461043b578063bdfd987714610445578063cc66985114610488575b600080fd5b3480156100ec57600080fd5b506100f56104df565b604051808215151515815260200191505060405180910390f35b34801561011b57600080fd5b5061013c6004803603810190808035151590602001909291905050506104f2565b005b34801561014a57600080fd5b50610153610687565b6040518082815260200191505060405180910390f35b61017161068d565b005b34801561017f57600080fd5b506101fa600480360381019080803590602001909291908035906020019092919080359060200190820180359060200191909192939192939080359060200190929190803590602001908201803590602001919091929391929390803590602001908201803590602001919091929391929390505050610814565b005b34801561020857600080fd5b50610211610c4d565b005b34801561021f57600080fd5b50610228610e30565b6040518082600360200280838360005b83811015610253578082015181840152602081019050610238565b5050505090500191505060405180910390f35b34801561027257600080fd5b5061027b610fa5565b6040518082815260200191505060405180910390f35b34801561029d57600080fd5b50610306600480360381019080803560ff16906020019092919080359060200190820180359060200191909192939192939080359060200190820180359060200191909192939192939080359060200190929190803560ff169060200190929190505050610fb1565b005b34801561031457600080fd5b50610363600480360381019080803590602001908201803590602001919091929391929390803590602001908201803590602001919091929391929390803590602001909291905050506115c9565b005b6103bd600480360381019080803590602001908201803590602001919091929391929390803590602001908201803590602001919091929391929390803590602001909291908035906020019092919050505061178d565b005b3480156103cb57600080fd5b506103ee6004803603810190808035600019169060200190929190505050611e58565b604051808373ffffffffffffffffffffffffffffffffffffffff1673ffffffffffffffffffffffffffffffffffffffff168152602001821515151581526020019250505060405180910390f35b610443611ea9565b005b34801561045157600080fd5b50610486600480360381019080803573ffffffffffffffffffffffffffffffffffffffff16906020019092919050505061225b565b005b34801561049457600080fd5b506104c9600480360381019080803573ffffffffffffffffffffffffffffffffffffffff169060200190929190505050612def565b6040518082815260200191505060405180910390f35b600260149054906101000a900460ff1681565b600260009054906101000a900473ffffffffffffffffffffffffffffffffffffffff1673ffffffffffffffffffffffffffffffffffffffff163373ffffffffffffffffffffffffffffffffffffffff161415156105b7576040517f08c379a000000000000000000000000000000000000000000000000000000000815260040180806020018281038252601c8152602001807f43616c6c6572206973206e6f7420636f6e7472616374206f776e65720000000081525060200191505060405180910390fd5b80600260149054906101000a900460ff16151581151514151515610669576040517f08c379a00000000000000000000000000000000000000000000000000000000081526004018080602001828103825260278152602001807f436f6e747261637420616c726561647920696e2074686520737461746520726581526020017f717565737465640000000000000000000000000000000000000000000000000081525060400191505060405180910390fd5b81600260146101000a81548160ff0219169083151502179055505050565b60015481565b610695613689565b670de0b6b3a76400003410151515610715576040517f08c379a000000000000000000000000000000000000000000000000000000000815260040180806020018281038252601c8152602001807f526567697374726174696f6e206665652069732072657175697265640000000081525060200191505060405180910390fd5b61071e33612f2a565b9050604080519081016040528060011515815260200182815250600560003373ffffffffffffffffffffffffffffffffffffffff1673ffffffffffffffffffffffffffffffffffffffff16815260200190815260200160002060008201518160000160006101000a81548160ff0219169083151502179055506020820151816001019060036107ae9291906136ac565b509050507f1baac8ba2b567b9999e2c2d7cdf890b818e8e8b70c67dbde09c32cffbfb1660e816040518082600360200280838360005b838110156107ff5780820151818401526020810190506107e4565b5050505090500191505060405180910390a150565b600260149054906101000a900460ff1615156108be576040517f08c379a00000000000000000000000000000000000000000000000000000000081526004018080602001828103825260258152602001807f436f6e74726163742069732063757272656e746c79206e6f74206f706572617481526020017f696f6e616c00000000000000000000000000000000000000000000000000000081525060400191505060405180910390fd5b6000809054906101000a900473ffffffffffffffffffffffffffffffffffffffff1673ffffffffffffffffffffffffffffffffffffffff166361dba32a336040518263ffffffff167c0100000000000000000000000000000000000000000000000000000000028152600401808273ffffffffffffffffffffffffffffffffffffffff1673ffffffffffffffffffffffffffffffffffffffff168152602001915050602060405180830381600087803b15801561097a57600080fd5b505af115801561098e573d6000803e3d6000fd5b505050506040513d60208110156109a457600080fd5b81019080805190602001909291905050501515610a75576040517f08c379a00000000000000000000000000000000000000000000000000000000081526004018080602001828103825260458152602001807f4169726c696e65206d7573742070726f766964652066756e64696e672062656681526020017f6f7265206265696e672061626c6520746f20706572666f726d2074686973206181526020017f6374696f6e00000000000000000000000000000000000000000000000000000081525060600191505060405180910390fd5b6000809054906101000a900473ffffffffffffffffffffffffffffffffffffffff1673ffffffffffffffffffffffffffffffffffffffff16636d81d0fd8a8a8a8a8a8a8a8a8a336040518b63ffffffff167c0100000000000000000000000000000000000000000000000000000000028152600401808b81526020018a81526020018060200188815260200180602001806020018573ffffffffffffffffffffffffffffffffffffffff1673ffffffffffffffffffffffffffffffffffffffff16815260200184810384528c8c82818152602001925080828437820191505084810383528989828181526020019250808284378201915050848103825287878281815260200192508082843782019150509d5050505050505050505050505050600060405180830381600087803b158015610baf57600080fd5b505af1158015610bc3573d6000803e3d6000fd5b505050507fa19f9e72ccb76a7c7fd8d5417c7aa820e53f8a4f6d4efd8fb0cf5363d4a056e1878784848c604051808060200180602001848152602001838103835288888281815260200192508082843782019150508381038252868682818152602001925080828437820191505097505050505050505060405180910390a1505050505050505050565b600260149054906101000a900460ff161515610cf7576040517f08c379a00000000000000000000000000000000000000000000000000000000081526004018080602001828103825260258152602001807f436f6e74726163742069732063757272656e746c79206e6f74206f706572617481526020017f696f6e616c00000000000000000000000000000000000000000000000000000081525060400191505060405180910390fd5b6000809054906101000a900473ffffffffffffffffffffffffffffffffffffffff1673ffffffffffffffffffffffffffffffffffffffff16630c11dedd336040518263ffffffff167c0100000000000000000000000000000000000000000000000000000000028152600401808273ffffffffffffffffffffffffffffffffffffffff1673ffffffffffffffffffffffffffffffffffffffff168152602001915050600060405180830381600087803b158015610db357600080fd5b505af1158015610dc7573d6000803e3d6000fd5b505050507f2cfcdb8597325a890a457a046fc613ce95ce7a2699d76f21d70b1ac2b896880333604051808273ffffffffffffffffffffffffffffffffffffffff1673ffffffffffffffffffffffffffffffffffffffff16815260200191505060405180910390a1565b610e38613689565b600560003373ffffffffffffffffffffffffffffffffffffffff1673ffffffffffffffffffffffffffffffffffffffff16815260200190815260200160002060000160009054906101000a900460ff161515610efc576040517f08c379a000000000000000000000000000000000000000000000000000000000815260040180806020018281038252601b8152602001807f4e6f74207265676973746572656420617320616e206f7261636c65000000000081525060200191505060405180910390fd5b600560003373ffffffffffffffffffffffffffffffffffffffff1673ffffffffffffffffffffffffffffffffffffffff168152602001908152602001600020600101600380602002604051908101604052809291908260038015610f9b576020028201916000905b82829054906101000a900460ff1660ff1681526020019060010190602082600001049283019260010382029150808411610f645790505b5050505050905090565b670de0b6b3a764000081565b60008760ff16600560003373ffffffffffffffffffffffffffffffffffffffff1673ffffffffffffffffffffffffffffffffffffffff168152602001908152602001600020600101600060038110151561100757fe5b602091828204019190069054906101000a900460ff1660ff16148061109657508760ff16600560003373ffffffffffffffffffffffffffffffffffffffff1673ffffffffffffffffffffffffffffffffffffffff168152602001908152602001600020600101600160038110151561107b57fe5b602091828204019190069054906101000a900460ff1660ff16145b8061110b57508760ff16600560003373ffffffffffffffffffffffffffffffffffffffff1673ffffffffffffffffffffffffffffffffffffffff16815260200190815260200160002060010160026003811015156110f057fe5b602091828204019190069054906101000a900460ff1660ff16145b15156111a5576040517f08c379a00000000000000000000000000000000000000000000000000000000081526004018080602001828103825260238152602001807f496e64657820646f6573206e6f74206d61746368206f7261636c65207265717581526020017f657374000000000000000000000000000000000000000000000000000000000081525060400191505060405180910390fd5b61121487878080601f01602080910402602001604051908101604052809392919081815260200183838082843782019150505050505086868080601f016020809104026020016040519081016040528093929190818152602001838380828437820191505050505050856130d0565b905060066000826000191660001916815260200190815260200160002060000160149054906101000a900460ff161515611328576040517f08c379a00000000000000000000000000000000000000000000000000000000081526004018080602001828103825260618152602001807f466c69676874206f722074696d657374616d7020646f206e6f74206d6174636881526020017f206f7261636c6520726571756573742e204f722072657175657374206973206381526020017f6c6f7365642028656e6f75676820726573706f6e73657320726563656976656481526020017f290000000000000000000000000000000000000000000000000000000000000081525060800191505060405180910390fd5b60066000826000191660001916815260200190815260200160002060010160008360ff1660ff1681526020019081526020016000203390806001815401808255809150509060018203906000526020600020016000909192909190916101000a81548173ffffffffffffffffffffffffffffffffffffffff021916908373ffffffffffffffffffffffffffffffffffffffff160217905550507ff3859e8d503be3ee71ca22e4e427ccdef876492280a41f401905169aa159d4d08787878787876040518080602001806020018581526020018460ff1660ff16815260200183810383528989828181526020019250808284378201915050838103825287878281815260200192508082843782019150509850505050505050505060405180910390a1600360ff1660066000836000191660001916815260200190815260200160002060010160008460ff1660ff1681526020019081526020016000208054905014156115bf57600060066000836000191660001916815260200190815260200160002060000160146101000a81548160ff0219169083151502179055507ff08215e5ada4250ddb2d501789b7424297e2fbda92f1679e33c0939333baa3298787878787876040518080602001806020018581526020018460ff1660ff16815260200183810383528989828181526020019250808284378201915050838103825287878281815260200192508082843782019150509850505050505050505060405180910390a16115be87878080601f01602080910402602001604051908101604052809392919081815260200183838082843782019150505050505086868080601f0160208091040260200160405190810160405280939291908181526020018383808284378201915050505050508585613207565b5b5050505050505050565b6000806115d5336134a4565b915061164687878080601f01602080910402602001604051908101604052809392919081815260200183838082843782019150505050505086868080601f016020809104026020016040519081016040528093929190818152602001838380828437820191505050505050856130d0565b905060408051908101604052803373ffffffffffffffffffffffffffffffffffffffff1681526020016001151581525060066000836000191660001916815260200190815260200160002060008201518160000160006101000a81548173ffffffffffffffffffffffffffffffffffffffff021916908373ffffffffffffffffffffffffffffffffffffffff16021790555060208201518160000160146101000a81548160ff0219169083151502179055509050507f0576a5c4ada227bc1e5ee791ad938be16fdb15878ac1798a1a3f962795d4c509828888888888604051808760ff1660ff168152602001806020018060200184815260200183810383528888828181526020019250808284378201915050838103825286868281815260200192508082843782019150509850505050505050505060405180910390a150505050505050565b6000816000670e92596fd62900008083101515611812576040517f08c379a000000000000000000000000000000000000000000000000000000000815260040180806020018281038252601d8152602001807f56616c756520686967686572207468616e206d617820616c6c6f77656400000081525060200191505060405180910390fd5b8183111515611889576040517f08c379a000000000000000000000000000000000000000000000000000000000815260040180806020018281038252601c8152602001807f56616c7565206c6f776572207468616e206d696e20616c6c6f7765640000000081525060200191505060405180910390fd5b6119dc856000809054906101000a900473ffffffffffffffffffffffffffffffffffffffff1673ffffffffffffffffffffffffffffffffffffffff16630829f2306119398e8e8080601f0160208091040260200160405190810160405280939291908181526020018383808284378201915050505050508d8d8080601f0160208091040260200160405190810160405280939291908181526020018383808284378201915050505050508c6130d0565b6040518263ffffffff167c0100000000000000000000000000000000000000000000000000000000028152600401808260001916600019168152602001915050602060405180830381600087803b15801561199357600080fd5b505af11580156119a7573d6000803e3d6000fd5b505050506040513d60208110156119bd57600080fd5b810190808051906020019092919050505061360690919063ffffffff16565b803410151515611a7a576040517f08c379a00000000000000000000000000000000000000000000000000000000081526004018080602001828103825260248152602001807f56616c75652073656e7420646f6573206e6f7420636f7665722074686520707281526020017f696365210000000000000000000000000000000000000000000000000000000081525060400191505060405180910390fd5b611bcd866000809054906101000a900473ffffffffffffffffffffffffffffffffffffffff1673ffffffffffffffffffffffffffffffffffffffff16630829f230611b2a8f8f8080601f0160208091040260200160405190810160405280939291908181526020018383808284378201915050505050508e8e8080601f0160208091040260200160405190810160405280939291908181526020018383808284378201915050505050508d6130d0565b6040518263ffffffff167c0100000000000000000000000000000000000000000000000000000000028152600401808260001916600019168152602001915050602060405180830381600087803b158015611b8457600080fd5b505af1158015611b98573d6000803e3d6000fd5b505050506040513d6020811015611bae57600080fd5b810190808051906020019092919050505061360690919063ffffffff16565b600081340390503373ffffffffffffffffffffffffffffffffffffffff166108fc829081150290604051600060405180830381858888f19350505050158015611c1a573d6000803e3d6000fd5b50600260149054906101000a900460ff161515611cc5576040517f08c379a00000000000000000000000000000000000000000000000000000000081526004018080602001828103825260258152602001807f436f6e74726163742069732063757272656e746c79206e6f74206f706572617481526020017f696f6e616c00000000000000000000000000000000000000000000000000000081525060400191505060405180910390fd5b611d348d8d8080601f0160208091040260200160405190810160405280939291908181526020018383808284378201915050505050508c8c8080601f0160208091040260200160405190810160405280939291908181526020018383808284378201915050505050508b6130d0565b96506000809054906101000a900473ffffffffffffffffffffffffffffffffffffffff1673ffffffffffffffffffffffffffffffffffffffff1663ebb4ed223489611d9c6002611d8e60038f61362290919063ffffffff16565b61365a90919063ffffffff16565b336040518563ffffffff167c01000000000000000000000000000000000000000000000000000000000281526004018084600019166000191681526020018381526020018273ffffffffffffffffffffffffffffffffffffffff1673ffffffffffffffffffffffffffffffffffffffff16815260200193505050506000604051808303818588803b158015611e3057600080fd5b505af1158015611e44573d6000803e3d6000fd5b505050505050505050505050505050505050565b60066020528060005260406000206000915090508060000160009054906101000a900473ffffffffffffffffffffffffffffffffffffffff16908060000160149054906101000a900460ff16905082565b6000809054906101000a900473ffffffffffffffffffffffffffffffffffffffff1673ffffffffffffffffffffffffffffffffffffffff1663c3c5a547336040518263ffffffff167c0100000000000000000000000000000000000000000000000000000000028152600401808273ffffffffffffffffffffffffffffffffffffffff1673ffffffffffffffffffffffffffffffffffffffff168152602001915050602060405180830381600087803b158015611f6557600080fd5b505af1158015611f79573d6000803e3d6000fd5b505050506040513d6020811015611f8f57600080fd5b81019080805190602001909291905050501515612060576040517f08c379a00000000000000000000000000000000000000000000000000000000081526004018080602001828103825260438152602001807f4169726c696e65206d7573742062652072656769737465726564206265666f7281526020017f65206265696e672061626c6520746f20706572666f726d20746869732061637481526020017f696f6e000000000000000000000000000000000000000000000000000000000081525060600191505060405180910390fd5b60015434101515156120da576040517f08c379a00000000000000000000000000000000000000000000000000000000081526004018080602001828103825260208152602001807f4d696e696d756e2066756e64696e6720616d6f756e742069732031302045544881525060200191505060405180910390fd5b600260149054906101000a900460ff161515612184576040517f08c379a00000000000000000000000000000000000000000000000000000000081526004018080602001828103825260258152602001807f436f6e74726163742069732063757272656e746c79206e6f74206f706572617481526020017f696f6e616c00000000000000000000000000000000000000000000000000000081525060400191505060405180910390fd5b6000809054906101000a900473ffffffffffffffffffffffffffffffffffffffff1673ffffffffffffffffffffffffffffffffffffffff16632302440834336040518363ffffffff167c0100000000000000000000000000000000000000000000000000000000028152600401808273ffffffffffffffffffffffffffffffffffffffff1673ffffffffffffffffffffffffffffffffffffffff1681526020019150506000604051808303818588803b15801561224057600080fd5b505af1158015612254573d6000803e3d6000fd5b5050505050565b600080600260149054906101000a900460ff161515612308576040517f08c379a00000000000000000000000000000000000000000000000000000000081526004018080602001828103825260258152602001807f436f6e74726163742069732063757272656e746c79206e6f74206f706572617481526020017f696f6e616c00000000000000000000000000000000000000000000000000000081525060400191505060405180910390fd5b6000809054906101000a900473ffffffffffffffffffffffffffffffffffffffff1673ffffffffffffffffffffffffffffffffffffffff1663c3c5a547336040518263ffffffff167c0100000000000000000000000000000000000000000000000000000000028152600401808273ffffffffffffffffffffffffffffffffffffffff1673ffffffffffffffffffffffffffffffffffffffff168152602001915050602060405180830381600087803b1580156123c457600080fd5b505af11580156123d8573d6000803e3d6000fd5b505050506040513d60208110156123ee57600080fd5b810190808051906020019092919050505015156124bf576040517f08c379a00000000000000000000000000000000000000000000000000000000081526004018080602001828103825260438152602001807f4169726c696e65206d7573742062652072656769737465726564206265666f7281526020017f65206265696e672061626c6520746f20706572666f726d20746869732061637481526020017f696f6e000000000000000000000000000000000000000000000000000000000081525060600191505060405180910390fd5b6000809054906101000a900473ffffffffffffffffffffffffffffffffffffffff1673ffffffffffffffffffffffffffffffffffffffff166361dba32a336040518263ffffffff167c0100000000000000000000000000000000000000000000000000000000028152600401808273ffffffffffffffffffffffffffffffffffffffff1673ffffffffffffffffffffffffffffffffffffffff168152602001915050602060405180830381600087803b15801561257b57600080fd5b505af115801561258f573d6000803e3d6000fd5b505050506040513d60208110156125a557600080fd5b81019080805190602001909291905050501515612676576040517f08c379a00000000000000000000000000000000000000000000000000000000081526004018080602001828103825260458152602001807f4169726c696e65206d7573742070726f766964652066756e64696e672062656681526020017f6f7265206265696e672061626c6520746f20706572666f726d2074686973206181526020017f6374696f6e00000000000000000000000000000000000000000000000000000081525060600191505060405180910390fd5b60046000809054906101000a900473ffffffffffffffffffffffffffffffffffffffff1673ffffffffffffffffffffffffffffffffffffffff1663f53aa2e26040518163ffffffff167c0100000000000000000000000000000000000000000000000000000000028152600401602060405180830381600087803b1580156126fd57600080fd5b505af1158015612711573d6000803e3d6000fd5b505050506040513d602081101561272757600080fd5b810190808051906020019092919050505010156129f9573373ffffffffffffffffffffffffffffffffffffffff166000809054906101000a900473ffffffffffffffffffffffffffffffffffffffff1673ffffffffffffffffffffffffffffffffffffffff16634819cf0c6040518163ffffffff167c0100000000000000000000000000000000000000000000000000000000028152600401602060405180830381600087803b1580156127da57600080fd5b505af11580156127ee573d6000803e3d6000fd5b505050506040513d602081101561280457600080fd5b810190808051906020019092919050505073ffffffffffffffffffffffffffffffffffffffff161415156128ec576040517f08c379a00000000000000000000000000000000000000000000000000000000081526004018080602001828103825260548152602001807f4c657373207468616e2034206169726c696e657320726567697374657265643a81526020017f206f6e6c79206669727374206169726c696e652072656769737465726564206381526020017f616e207265676973746572206e6577206f6e657300000000000000000000000081525060600191505060405180910390fd5b6000809054906101000a900473ffffffffffffffffffffffffffffffffffffffff1673ffffffffffffffffffffffffffffffffffffffff1663c7ba501884336040518363ffffffff167c0100000000000000000000000000000000000000000000000000000000028152600401808373ffffffffffffffffffffffffffffffffffffffff1673ffffffffffffffffffffffffffffffffffffffff1681526020018273ffffffffffffffffffffffffffffffffffffffff1673ffffffffffffffffffffffffffffffffffffffff16815260200192505050600060405180830381600087803b1580156129dc57600080fd5b505af11580156129f0573d6000803e3d6000fd5b50505050612dea565b60009150600090505b600360008473ffffffffffffffffffffffffffffffffffffffff1673ffffffffffffffffffffffffffffffffffffffff16815260200190815260200160002080549050811015612b0c573373ffffffffffffffffffffffffffffffffffffffff16600360008573ffffffffffffffffffffffffffffffffffffffff1673ffffffffffffffffffffffffffffffffffffffff16815260200190815260200160002082815481101515612aaf57fe5b9060005260206000200160009054906101000a900473ffffffffffffffffffffffffffffffffffffffff1673ffffffffffffffffffffffffffffffffffffffff161415612aff5760019150612b0c565b8080600101915050612a02565b81151515612ba8576040517f08c379a00000000000000000000000000000000000000000000000000000000081526004018080602001828103825260268152602001807f43616c6c65722063616e6e6f742063616c6c20746869732066756e6374696f6e81526020017f207477696365000000000000000000000000000000000000000000000000000081525060400191505060405180910390fd5b600360008473ffffffffffffffffffffffffffffffffffffffff1673ffffffffffffffffffffffffffffffffffffffff1681526020019081526020016000203390806001815401808255809150509060018203906000526020600020016000909192909190916101000a81548173ffffffffffffffffffffffffffffffffffffffff021916908373ffffffffffffffffffffffffffffffffffffffff160217905550506000612c5684612def565b1415612de9576000604051908082528060200260200182016040528015612c8c5781602001602082028038833980820191505090505b50600360008573ffffffffffffffffffffffffffffffffffffffff1673ffffffffffffffffffffffffffffffffffffffff1681526020019081526020016000209080519060200190612cdf929190613746565b506000809054906101000a900473ffffffffffffffffffffffffffffffffffffffff1673ffffffffffffffffffffffffffffffffffffffff1663c7ba501884336040518363ffffffff167c0100000000000000000000000000000000000000000000000000000000028152600401808373ffffffffffffffffffffffffffffffffffffffff1673ffffffffffffffffffffffffffffffffffffffff1681526020018273ffffffffffffffffffffffffffffffffffffffff1673ffffffffffffffffffffffffffffffffffffffff16815260200192505050600060405180830381600087803b158015612dd057600080fd5b505af1158015612de4573d6000803e3d6000fd5b505050505b5b505050565b6000806000600360008573ffffffffffffffffffffffffffffffffffffffff1673ffffffffffffffffffffffffffffffffffffffff168152602001908152602001600020805490509150612f0c60026000809054906101000a900473ffffffffffffffffffffffffffffffffffffffff1673ffffffffffffffffffffffffffffffffffffffff1663f53aa2e26040518163ffffffff167c0100000000000000000000000000000000000000000000000000000000028152600401602060405180830381600087803b158015612ec357600080fd5b505af1158015612ed7573d6000803e3d6000fd5b505050506040513d6020811015612eed57600080fd5b810190808051906020019092919050505061365a90919063ffffffff16565b9050612f21828261367090919063ffffffff16565b92505050919050565b612f32613689565b612f3a613689565b612f43836134a4565b816000600381101515612f5257fe5b602002019060ff16908160ff1681525050806000600381101515612f7257fe5b6020020151816001600381101515612f8657fe5b602002019060ff16908160ff16815250505b806000600381101515612fa757fe5b602002015160ff16816001600381101515612fbe57fe5b602002015160ff161415612ffa57612fd5836134a4565b816001600381101515612fe457fe5b602002019060ff16908160ff1681525050612f98565b80600160038110151561300957fe5b602002015181600260038110151561301d57fe5b602002019060ff16908160ff16815250505b80600060038110151561303e57fe5b602002015160ff1681600260038110151561305557fe5b602002015160ff161480613094575080600160038110151561307357fe5b602002015160ff1681600260038110151561308a57fe5b602002015160ff16145b156130c7576130a2836134a4565b8160026003811015156130b157fe5b602002019060ff16908160ff168152505061302f565b80915050919050565b60008383836040516020018084805190602001908083835b60208310151561310d57805182526020820191506020810190506020830392506130e8565b6001836020036101000a03801982511681845116808217855250505050505090500183805190602001908083835b602083101515613160578051825260208201915060208101905060208303925061313b565b6001836020036101000a03801982511681845116808217855250505050505090500182815260200193505050506040516020818303038152906040526040518082805190602001908083835b6020831015156131d157805182526020820191506020810190506020830392506131ac565b6001836020036101000a038019825116818451168082178552505050505050905001915050604051809103902090509392505050565b6000600260149054906101000a900460ff1615156132b3576040517f08c379a00000000000000000000000000000000000000000000000000000000081526004018080602001828103825260258152602001807f436f6e74726163742069732063757272656e746c79206e6f74206f706572617481526020017f696f6e616c00000000000000000000000000000000000000000000000000000081525060400191505060405180910390fd5b6132be8585856130d0565b90506000809054906101000a900473ffffffffffffffffffffffffffffffffffffffff1673ffffffffffffffffffffffffffffffffffffffff16630f9429b782846040518363ffffffff167c01000000000000000000000000000000000000000000000000000000000281526004018083600019166000191681526020018260ff1660ff16815260200192505050600060405180830381600087803b15801561336657600080fd5b505af115801561337a573d6000803e3d6000fd5b505050507f034d3cd105b9813e396868830ab985c576b7ac59b402428c8ae3391b56ce4349858585856040518080602001806020018581526020018460ff1660ff168152602001838103835287818151815260200191508051906020019080838360005b838110156133f95780820151818401526020810190506133de565b50505050905090810190601f1680156134265780820380516001836020036101000a031916815260200191505b50838103825286818151815260200191508051906020019080838360005b8381101561345f578082015181840152602081019050613444565b50505050905090810190601f16801561348c5780820380516001836020036101000a031916815260200191505b50965050505050505060405180910390a15050505050565b6000806000600a91508160ff166004600081819054906101000a900460ff168092919060010191906101000a81548160ff021916908360ff16021790555060ff16430340856040516020018083600019166000191681526020018273ffffffffffffffffffffffffffffffffffffffff1673ffffffffffffffffffffffffffffffffffffffff166c01000000000000000000000000028152601401925050506040516020818303038152906040526040518082805190602001908083835b6020831015156135875780518252602082019150602081019050602083039250613562565b6001836020036101000a0380198251168184511680821785525050505050509050019150506040518091039020600190048115156135c157fe5b06905060fa600460009054906101000a900460ff1660ff1611156135fc576000600460006101000a81548160ff021916908360ff1602179055505b8092505050919050565b6000818301905082811015151561361957fe5b80905092915050565b6000808314156136355760009050613654565b818302905081838281151561364657fe5b0414151561365057fe5b8090505b92915050565b6000818381151561366757fe5b04905092915050565b600082821115151561367e57fe5b818303905092915050565b606060405190810160405280600390602082028038833980820191505090505090565b826003601f016020900481019282156137355791602002820160005b8382111561370657835183826101000a81548160ff021916908360ff16021790555092602001926001016020816000010492830192600103026136c8565b80156137335782816101000a81549060ff0219169055600101602081600001049283019260010302613706565b505b50905061374291906137d0565b5090565b8280548282559060005260206000209081019282156137bf579160200282015b828111156137be5782518260006101000a81548173ffffffffffffffffffffffffffffffffffffffff021916908373ffffffffffffffffffffffffffffffffffffffff16021790555091602001919060010190613766565b5b5090506137cc9190613800565b5090565b6137fd91905b808211156137f957600081816101000a81549060ff0219169055506001016137d6565b5090565b90565b61384091905b8082111561383c57600081816101000a81549073ffffffffffffffffffffffffffffffffffffffff021916905550600101613806565b5090565b905600a165627a7a72305820c702c4de904d5f4e361d6122fa04223190095a12429d613e7cdb615755802a550029",
  "source": "pragma solidity ^0.4.25;\n\n/* It's important to avoid vulnerabilities due to numeric overflow bugs\n// OpenZeppelin's SafeMath library, when used correctly, protects agains such bugs\n// More info:\nhttps://www.nccgroup.trust/us/about-us/newsroom-and-events/blog/2018/november/smart-contract-insecurity-bad-arithmetic/\n*/\n\nimport \"../node_modules/openzeppelin-solidity/contracts/math/SafeMath.sol\";\n\n\n// FlightSuretyData Interface contract\ncontract FlightSuretyData {\n\n    function registerAirline(address airlineAddress, address originAddress) external;\n    function fund(address originAddress) external payable;\n\n    function registerFlight\n    (\n        uint takeOff,\n        uint landing,\n        string flightRef,\n        uint price,\n        string from,\n        string to,\n        address originAddress\n    )\n    external;\n\n    function book(bytes32 flightKey, uint amount, address originAddress) external payable;\n    function pay(address originAddress) external;\n    function processFlightStatus(bytes32 flightKey, uint8 status)  external;\n    function getFlightPrice(bytes32 flightKey) external view returns (uint);\n    function hasFunded(address airlineAddress) external view returns (bool);\n    function isRegistered(address airlineAddress) external view returns (bool);\n    function registeredAirlinesCount() external view returns (uint);\n    function firstAirline() external view returns (address);\n\n\n}\n\n\ncontract FlightSuretyApp {\n    // Allow SafeMath functions to be called for all uint256 types (similar to \"prototype\" in Javascript)\n    using SafeMath for uint256;\n\n    ///////////////////////////// APP VARIABLES\n    /* Contract upgradability: app contract variables are separated from contract data variables.\n    App variables might have to be updated or changed because of business rules changes.\n    In this case a new updated App contract would be deployed.\n    On the other hand, the linked Data contract isn't changed or redeployed.\n    */\n\n    // State var for data contract\n    FlightSuretyData flightSuretyData;\n\n    // minimum funding amount\n    uint public minFund = 10 ether;\n\n    // Flight status codees\n    uint8 private constant STATUS_CODE_UNKNOWN = 0;\n    uint8 private constant STATUS_CODE_ON_TIME = 10;\n    uint8 private constant STATUS_CODE_LATE_AIRLINE = 20;\n    uint8 private constant STATUS_CODE_LATE_WEATHER = 30;\n    uint8 private constant STATUS_CODE_LATE_TECHNICAL = 40;\n    uint8 private constant STATUS_CODE_LATE_OTHER = 50;\n\n    // Account used to deploy contract\n    address private contractOwner;\n    // Contract control flag\n    bool public operational;\n\n    // Multi-party consensus - part of app logic\n    // mapping instead of an array I want to count not only multicalls but multicalls per to-be-added airline\n    mapping(address => address[]) internal votes;\n\n    /////////////////////////////// EVENTS\n\n    event FlightRegistered(string flightRef, string to, uint landing);\n    event WithdrawRequest(address recipient);\n    event FlightProcessed(string flightRef, string destination, uint timestamp, uint8 statusCode);\n\n    /////////////////////////////// MODIFIERS\n\n    // Contract \"pausing\" functionality\n    modifier requireIsOperational() {\n        require(operational, \"Contract is currently not operational\");\n        // All modifiers require an \"_\" which indicates where the function body will be added\n        _;\n    }\n\n    // avoid spending unecessary gas if requested state changed if the same as the current one\n    modifier differentModeRequest(bool status) {\n        require(status != operational, \"Contract already in the state requested\");\n        _;\n    }\n\n    modifier requireContractOwner() {\n        require(msg.sender == contractOwner, \"Caller is not contract owner\");\n        _;\n    }\n\n    // Part of app contract (business rule that might change)\n    modifier enoughFund() {\n        require(msg.value >= minFund, \"Minimun funding amount is 10 ETH\");\n        _;\n    }\n\n    modifier valWithinRange(uint val, uint low, uint up) {\n        require(val < up, \"Value higher than max allowed\");\n        require(val > low, \"Value lower than min allowed\");\n        _;\n    }\n\n    modifier paidEnough(uint _price) {\n        require(msg.value >= _price, \"Value sent does not cover the price!\");\n        _;\n    }\n\n    modifier checkValue(uint _price) {\n        uint amountToReturn = msg.value - _price;\n        msg.sender.transfer(amountToReturn);\n        _;\n    }\n\n    modifier airlineRegistered() {\n        require(\n            flightSuretyData.isRegistered(msg.sender),\n            \"Airline must be registered before being able to perform this action\"\n        );\n        _;\n    }\n\n    modifier airlineFunded() {\n        require(\n            flightSuretyData.hasFunded(msg.sender),\n            \"Airline must provide funding before being able to perform this action\"\n        );\n        _;\n    }\n    //////////////////////////////// CONSTRUCTOR\n\n    constructor(address dataContractAddress) public {\n        operational = true;\n        contractOwner = msg.sender;\n        flightSuretyData = FlightSuretyData(dataContractAddress);\n    }\n\n    //////////////////////////// UTILITY FUNCTIONS\n    function setOperatingStatus(bool mode) external requireContractOwner\n    differentModeRequest(mode)\n    {\n        operational = mode;\n    }\n\n    function votesLeft(address airlineToBeAdded)\n    public\n    view\n    returns (uint remainingVotes)\n    {\n        uint registeredVotes = votes[airlineToBeAdded].length;\n        uint threshold = flightSuretyData.registeredAirlinesCount().div(2);\n        remainingVotes = threshold.sub(registeredVotes);\n    }\n\n    ///////////////////////////// SMART CONTRACT FUNCTIONS\n\n    function registerAirline(address airlineAddress)\n    external\n    requireIsOperational\n    airlineRegistered\n    airlineFunded\n    {\n        // only first Airline can register a new airline when less than 4 airlines are registered\n        if (flightSuretyData.registeredAirlinesCount() < 4) {\n            require(\n                flightSuretyData.firstAirline() == msg.sender,\n                \"Less than 4 airlines registered: only first airline registered can register new ones\");\n            flightSuretyData.registerAirline(airlineAddress, msg.sender);\n        } else {\n            // multi party consensus\n            bool isDuplicate = false;\n            for (uint i=0; i < votes[airlineAddress].length; i++) {\n                if (votes[airlineAddress][i] == msg.sender) {\n                    isDuplicate = true;\n                    break;\n                }\n            }\n            require(!isDuplicate, \"Caller cannot call this function twice\");\n            votes[airlineAddress].push(msg.sender);\n\n            if (votesLeft(airlineAddress) == 0) {\n                votes[airlineAddress] = new address[](0);\n                flightSuretyData.registerAirline(airlineAddress, msg.sender);\n            }\n        }\n    }\n\n    function fund()\n    external\n    airlineRegistered\n    enoughFund\n    requireIsOperational\n    payable\n    {\n        flightSuretyData.fund.value(msg.value)(msg.sender);\n    }\n\n    function registerFlight\n    (\n        uint takeOff,\n        uint landing,\n        string flightRef,\n        uint price,\n        string from,\n        string to\n    )\n    external\n    requireIsOperational\n    airlineFunded\n    {\n        flightSuretyData.registerFlight(\n            takeOff,\n            landing,\n            flightRef,\n            price,\n            from,\n            to,\n            msg.sender\n        );\n        emit FlightRegistered(flightRef, to, landing);\n    }\n\n    function book\n    (\n        string _flight,\n        string _to,\n        uint _landing,\n        uint amount\n    )\n    external\n    valWithinRange(amount, 0, 1.05 ether) // +0.05 to cover gas costs\n    paidEnough(flightSuretyData.getFlightPrice(getFlightKey(_flight, _to, _landing)).add(amount))\n    checkValue(flightSuretyData.getFlightPrice(getFlightKey(_flight, _to, _landing)).add(amount))\n    requireIsOperational\n    payable\n    {\n        bytes32 flightKey= getFlightKey(_flight, _to, _landing);\n\n        flightSuretyData.book.value(msg.value)(flightKey, amount.mul(3).div(2), msg.sender);\n    }\n\n    function withdraw()\n    external\n    requireIsOperational\n    {\n        flightSuretyData.pay(msg.sender);\n        emit WithdrawRequest(msg.sender);\n    }\n\n   //Called after oracle has updated flight status\n    function processFlightStatus\n    (\n        string flightRef,\n        string destination,\n        uint256 timestamp,\n        uint8 statusCode\n    )\n    internal\n    requireIsOperational\n    {\n        // generate flightKey\n        bytes32 flightKey = getFlightKey(flightRef, destination, timestamp);\n        flightSuretyData.processFlightStatus(flightKey, statusCode);\n\n        emit FlightProcessed(flightRef, destination, timestamp, statusCode);\n    }\n\n\n    // Generate a request for oracles to fetch flight information\n    function fetchFlightStatus\n    (\n        string flight,\n        string destination,\n        uint256 timestamp\n    )\n    external\n    {\n        uint8 index = getRandomIndex(msg.sender);\n\n        // Generate a unique key for storing the request\n        bytes32 key = getFlightKey(flight, destination, timestamp);\n        oracleResponses[key] = ResponseInfo({\n            requester: msg.sender,\n            isOpen: true\n        });\n\n        emit OracleRequest(index, flight, destination, timestamp);\n    }\n\n////////////////////// START ORACLE MANAGEMENT REGION\n    // Incremented to add pseudo-randomness at various points\n    uint8 private nonce = 0;\n\n    // Fee to be paid when registering oracle\n    uint256 public constant REGISTRATION_FEE = 1 ether;\n\n    // Number of oracles that must respond for valid status\n    uint8 private constant MIN_RESPONSES = 3;\n\n    struct Oracle {\n        bool isRegistered;\n        uint8[3] indexes;\n    }\n\n    // Track all registered oracles\n    mapping(address => Oracle) private oracles;\n\n    // Model for responses from oracles\n    struct ResponseInfo {\n        address requester;                              // Account that requested status\n        bool isOpen;                                    // If open, oracle responses are accepted\n        mapping(uint8 => address[]) responses;          // Mapping key is the status code reported\n        // This lets us group responses and identify\n        // the response that majority of the oracles\n    }\n\n    // Track all oracle responses\n    // Key = hash(flight, destination, timestamp)\n    mapping(bytes32 => ResponseInfo) public oracleResponses;\n\n    event OracleRegistered(uint8[3] indexes);\n\n    // Event fired each time an oracle submits a response\n    event OracleReport(string flight, string destination, uint256 timestamp, uint8 status);\n    // Event fired when number of identical responses reaches the threshold: response is accepted and is processed\n    event FlightStatusInfo(string flight, string destination, uint256 timestamp, uint8 status);\n\n\n    // Event fired when flight status request is submitted\n    // Oracles track this and if they have a matching index\n    // they fetch data and submit a response\n    event OracleRequest(uint8 index, string flight, string destination, uint256 timestamp);\n\n    // Register an oracle with the contract\n    function registerOracle() external payable\n    {\n        // Require registration fee\n        require(msg.value >= REGISTRATION_FEE, \"Registration fee is required\");\n\n        uint8[3] memory indexes = generateIndexes(msg.sender);\n\n        oracles[msg.sender] = Oracle({\n            isRegistered: true,\n            indexes: indexes\n        });\n        emit OracleRegistered(indexes);\n    }\n\n    function getMyIndexes() external view returns(uint8[3])\n    {\n        require(oracles[msg.sender].isRegistered, \"Not registered as an oracle\");\n\n        return oracles[msg.sender].indexes;\n    }\n\n    // Called by oracle when a response is available to an outstanding request\n    // For the response to be accepted, there must be a pending request that is open\n    // and matches one of the three Indexes randomly assigned to the oracle at the\n    // time of registration (i.e. uninvited oracles are not welcome)\n    function submitOracleResponse\n    (\n        uint8 index,\n        string flight,\n        string destination,\n        uint256 timestamp,\n        uint8 statusCode\n    )\n    external\n    {\n        require(\n            (oracles[msg.sender].indexes[0] == index) || (oracles[msg.sender].indexes[1] == index) || (oracles[msg.sender].indexes[2] == index),\n            \"Index does not match oracle request\"\n        );\n\n\n        bytes32 key = getFlightKey(flight, destination, timestamp);\n        require(\n            oracleResponses[key].isOpen,\n            \"Flight or timestamp do not match oracle request. Or request is closed (enough responses received)\");\n\n        oracleResponses[key].responses[statusCode].push(msg.sender);\n        emit OracleReport(flight, destination, timestamp, statusCode);\n\n        /* Information isn't considered verified until at least\n        MIN_RESPONSES oracles respond with the *** same *** information\n        */\n        if (oracleResponses[key].responses[statusCode].length == MIN_RESPONSES) {\n            // close responseInfo\n            oracleResponses[key].isOpen = false;\n            emit FlightStatusInfo(flight, destination, timestamp, statusCode);\n            // Handle flight status as appropriate\n            processFlightStatus(flight, destination, timestamp, statusCode);\n        }\n    }\n\n    function getFlightKey\n    (\n        string flightRef,\n        string destination,\n        uint256 timestamp\n    )\n    internal\n    pure\n    returns(bytes32)\n    {\n        return keccak256(abi.encodePacked(flightRef, destination, timestamp));\n    }\n\n    // Returns array of three non-duplicating integers from 0-9\n    function generateIndexes(address account) internal returns(uint8[3])\n    {\n        uint8[3] memory indexes;\n        indexes[0] = getRandomIndex(account);\n\n        indexes[1] = indexes[0];\n        while (indexes[1] == indexes[0]) {\n            indexes[1] = getRandomIndex(account);\n        }\n\n        indexes[2] = indexes[1];\n        while ((indexes[2] == indexes[0]) || (indexes[2] == indexes[1])) {\n            indexes[2] = getRandomIndex(account);\n        }\n\n        return indexes;\n    }\n\n    // Returns array of three non-duplicating integers from 0-9\n    function getRandomIndex(address account) internal returns (uint8)\n    {\n        uint8 maxValue = 10;\n\n        // Pseudo random number...the incrementing nonce adds variation\n        uint8 random = uint8(\n            uint256(\n                keccak256(\n                    abi.encodePacked(blockhash(block.number - nonce++),\n                    account)\n                )\n            ) % maxValue);\n\n        if (nonce > 250) {\n            nonce = 0;  // Can only fetch blockhashes for last 256 blocks so we adapt\n        }\n\n        return random;\n    }\n\n//////////////////////// END ORACLE MANAGEMENT REGION\n\n}\n",
  "sourcePath": "/Users/saro/Desktop/Blockchain/Project4/contracts/FlightSuretyApp.sol",
  "compiler": {
    "name": "solc",
    "version": "0.4.26+commit.4563c3fc.Emscripten.clang"
  },
  "schemaVersion": "3.0.20",
  "updatedAt": "2020-01-10T15:16:15.500Z",
  "networkType": "ethereum",
  "devdoc": {
    "methods": {}
  },
  "userdoc": {
    "methods": {
      "registerAirline(address)": {
        "notice": "////////////////////////// SMART CONTRACT FUNCTIONS"
      },
      "setOperatingStatus(bool)": {
        "notice": "///////////////////////// UTILITY FUNCTIONS"
      }
    }
  }
}